{
  "_format": "hh-sol-artifact-1",
  "contractName": "Voting",
  "sourceName": "contracts/Voting.sol",
  "abi": [
    {
      "inputs": [
        {
          "internalType": "string[]",
          "name": "candidateNames",
          "type": "string[]"
        }
      ],
      "stateMutability": "nonpayable",
      "type": "constructor"
    },
    {
      "anonymous": false,
      "inputs": [
        {
          "indexed": true,
          "internalType": "address",
          "name": "voter",
          "type": "address"
        },
        {
          "indexed": false,
          "internalType": "uint256",
          "name": "candidateIndex",
          "type": "uint256"
        }
      ],
      "name": "Voted",
      "type": "event"
    },
    {
      "inputs": [
        {
          "internalType": "string",
          "name": "name",
          "type": "string"
        }
      ],
      "name": "addCandidate",
      "outputs": [],
      "stateMutability": "nonpayable",
      "type": "function"
    },
    {
      "inputs": [
        {
          "internalType": "uint256",
          "name": "",
          "type": "uint256"
        }
      ],
      "name": "candidates",
      "outputs": [
        {
          "internalType": "string",
          "name": "name",
          "type": "string"
        },
        {
          "internalType": "uint256",
          "name": "voteCount",
          "type": "uint256"
        }
      ],
      "stateMutability": "view",
      "type": "function"
    },
    {
      "inputs": [],
      "name": "getCandidates",
      "outputs": [
        {
          "components": [
            {
              "internalType": "string",
              "name": "name",
              "type": "string"
            },
            {
              "internalType": "uint256",
              "name": "voteCount",
              "type": "uint256"
            }
          ],
          "internalType": "struct Voting.Candidate[]",
          "name": "",
          "type": "tuple[]"
        }
      ],
      "stateMutability": "view",
      "type": "function"
    },
    {
      "inputs": [
        {
          "internalType": "address",
          "name": "voter",
          "type": "address"
        }
      ],
      "name": "getVoteCount",
      "outputs": [
        {
          "internalType": "uint256",
          "name": "",
          "type": "uint256"
        }
      ],
      "stateMutability": "view",
      "type": "function"
    },
    {
      "inputs": [],
      "name": "getWinner",
      "outputs": [
        {
          "internalType": "string",
          "name": "winnerName",
          "type": "string"
        },
        {
          "internalType": "uint256",
          "name": "maxVotes",
          "type": "uint256"
        }
      ],
      "stateMutability": "view",
      "type": "function"
    },
    {
      "inputs": [],
      "name": "owner",
      "outputs": [
        {
          "internalType": "address",
          "name": "",
          "type": "address"
        }
      ],
      "stateMutability": "view",
      "type": "function"
    },
    {
      "inputs": [
        {
          "internalType": "uint256",
          "name": "candidateIndex",
          "type": "uint256"
        }
      ],
      "name": "vote",
      "outputs": [],
      "stateMutability": "nonpayable",
      "type": "function"
    },
    {
      "inputs": [
        {
          "internalType": "address",
          "name": "",
          "type": "address"
        }
      ],
      "name": "voteCount",
      "outputs": [
        {
          "internalType": "uint256",
          "name": "",
          "type": "uint256"
        }
      ],
      "stateMutability": "view",
      "type": "function"
    }
  ],
  "bytecode": "0x60806040523480156200001157600080fd5b5060405162001a5138038062001a518339818101604052810190620000379190620003ab565b336000806101000a81548173ffffffffffffffffffffffffffffffffffffffff021916908373ffffffffffffffffffffffffffffffffffffffff16021790555060005b8151811015620001145760026040518060400160405280848481518110620000a757620000a6620003fc565b5b60200260200101518152602001600081525090806001815401808255809150506001900390600052602060002090600202016000909190919091506000820151816000019081620000f9919062000676565b5060208201518160010155505080806001019150506200007a565b50506200075d565b6000604051905090565b600080fd5b600080fd5b600080fd5b6000601f19601f8301169050919050565b7f4e487b7100000000000000000000000000000000000000000000000000000000600052604160045260246000fd5b620001808262000135565b810181811067ffffffffffffffff82111715620001a257620001a162000146565b5b80604052505050565b6000620001b76200011c565b9050620001c5828262000175565b919050565b600067ffffffffffffffff821115620001e857620001e762000146565b5b602082029050602081019050919050565b600080fd5b600080fd5b600067ffffffffffffffff82111562000221576200022062000146565b5b6200022c8262000135565b9050602081019050919050565b60005b83811015620002595780820151818401526020810190506200023c565b60008484015250505050565b60006200027c620002768462000203565b620001ab565b9050828152602081018484840111156200029b576200029a620001fe565b5b620002a884828562000239565b509392505050565b600082601f830112620002c857620002c762000130565b5b8151620002da84826020860162000265565b91505092915050565b6000620002fa620002f484620001ca565b620001ab565b9050808382526020820190506020840283018581111562000320576200031f620001f9565b5b835b818110156200036e57805167ffffffffffffffff81111562000349576200034862000130565b5b808601620003588982620002b0565b8552602085019450505060208101905062000322565b5050509392505050565b600082601f83011262000390576200038f62000130565b5b8151620003a2848260208601620002e3565b91505092915050565b600060208284031215620003c457620003c362000126565b5b600082015167ffffffffffffffff811115620003e557620003e46200012b565b5b620003f38482850162000378565b91505092915050565b7f4e487b7100000000000000000000000000000000000000000000000000000000600052603260045260246000fd5b600081519050919050565b7f4e487b7100000000000000000000000000000000000000000000000000000000600052602260045260246000fd5b600060028204905060018216806200047e57607f821691505b60208210810362000494576200049362000436565b5b50919050565b60008190508160005260206000209050919050565b60006020601f8301049050919050565b600082821b905092915050565b600060088302620004fe7fffffffffffffffffffffffffffffffffffffffffffffffffffffffffffffffff82620004bf565b6200050a8683620004bf565b95508019841693508086168417925050509392505050565b6000819050919050565b6000819050919050565b600062000557620005516200054b8462000522565b6200052c565b62000522565b9050919050565b6000819050919050565b620005738362000536565b6200058b62000582826200055e565b848454620004cc565b825550505050565b600090565b620005a262000593565b620005af81848462000568565b505050565b5b81811015620005d757620005cb60008262000598565b600181019050620005b5565b5050565b601f8211156200062657620005f0816200049a565b620005fb84620004af565b810160208510156200060b578190505b620006236200061a85620004af565b830182620005b4565b50505b505050565b600082821c905092915050565b60006200064b600019846008026200062b565b1980831691505092915050565b600062000666838362000638565b9150826002028217905092915050565b62000681826200042b565b67ffffffffffffffff8111156200069d576200069c62000146565b5b620006a9825462000465565b620006b6828285620005db565b600060209050601f831160018114620006ee5760008415620006d9578287015190505b620006e5858262000658565b86555062000755565b601f198416620006fe866200049a565b60005b82811015620007285784890151825560018201915060208501945060208101905062000701565b8683101562000748578489015162000744601f89168262000638565b8355505b6001600288020188555050505b505050505050565b6112e4806200076d6000396000f3fe608060405234801561001057600080fd5b50600436106100885760003560e01c80635e3cd7bc1161005b5780635e3cd7bc146101145780638da5cb5b146101445780638e7ea5b214610162578063e652f4cc1461018157610088565b80630121b93f1461008d57806306a49fce146100a95780633477ee2e146100c7578063462e91ec146100f8575b600080fd5b6100a760048036038101906100a2919061087e565b6101b1565b005b6100b161035e565b6040516100be9190610a49565b60405180910390f35b6100e160048036038101906100dc919061087e565b610459565b6040516100ef929190610ac4565b60405180910390f35b610112600480360381019061010d9190610c29565b610515565b005b61012e60048036038101906101299190610cd0565b610609565b60405161013b9190610cfd565b60405180910390f35b61014c610621565b6040516101599190610d27565b60405180910390f35b61016a610645565b604051610178929190610ac4565b60405180910390f35b61019b60048036038101906101969190610cd0565b6107eb565b6040516101a89190610cfd565b60405180910390f35b6005600160003373ffffffffffffffffffffffffffffffffffffffff1673ffffffffffffffffffffffffffffffffffffffff1681526020019081526020016000205410610233576040517f08c379a000000000000000000000000000000000000000000000000000000000815260040161022a90610db4565b60405180910390fd5b600280549050811061027a576040517f08c379a000000000000000000000000000000000000000000000000000000000815260040161027190610e20565b60405180910390fd5b6001600282815481106102905761028f610e40565b5b906000526020600020906002020160010160008282546102b09190610e9e565b9250508190555060018060003373ffffffffffffffffffffffffffffffffffffffff1673ffffffffffffffffffffffffffffffffffffffff16815260200190815260200160002060008282546103069190610e9e565b925050819055503373ffffffffffffffffffffffffffffffffffffffff167f4d99b957a2bc29a30ebd96a7be8e68fe50a3c701db28a91436490b7d53870ca4826040516103539190610cfd565b60405180910390a250565b60606002805480602002602001604051908101604052809291908181526020016000905b8282101561045057838290600052602060002090600202016040518060400160405290816000820180546103b590610f01565b80601f01602080910402602001604051908101604052809291908181526020018280546103e190610f01565b801561042e5780601f106104035761010080835404028352916020019161042e565b820191906000526020600020905b81548152906001019060200180831161041157829003601f168201915b5050505050815260200160018201548152505081526020019060010190610382565b50505050905090565b6002818154811061046957600080fd5b906000526020600020906002020160009150905080600001805461048c90610f01565b80601f01602080910402602001604051908101604052809291908181526020018280546104b890610f01565b80156105055780601f106104da57610100808354040283529160200191610505565b820191906000526020600020905b8154815290600101906020018083116104e857829003601f168201915b5050505050908060010154905082565b60008054906101000a900473ffffffffffffffffffffffffffffffffffffffff1673ffffffffffffffffffffffffffffffffffffffff163373ffffffffffffffffffffffffffffffffffffffff16146105a3576040517f08c379a000000000000000000000000000000000000000000000000000000000815260040161059a90610fa4565b60405180910390fd5b600260405180604001604052808381526020016000815250908060018154018082558091505060019003906000526020600020906002020160009091909190915060008201518160000190816105f99190611170565b5060208201518160010155505050565b60016020528060005260406000206000915090505481565b60008054906101000a900473ffffffffffffffffffffffffffffffffffffffff1681565b606060008060028054905011610690576040517f08c379a00000000000000000000000000000000000000000000000000000000081526004016106879061128e565b60405180910390fd5b600060026000815481106106a7576106a6610e40565b5b90600052602060002090600202016001015491506000600190505b6002805490508110156107355782600282815481106106e4576106e3610e40565b5b906000526020600020906002020160010154111561072857600281815481106107105761070f610e40565b5b90600052602060002090600202016001015492508091505b80806001019150506106c2565b506002818154811061074a57610749610e40565b5b9060005260206000209060020201600001805461076690610f01565b80601f016020809104026020016040519081016040528092919081815260200182805461079290610f01565b80156107df5780601f106107b4576101008083540402835291602001916107df565b820191906000526020600020905b8154815290600101906020018083116107c257829003601f168201915b50505050509250509091565b6000600160008373ffffffffffffffffffffffffffffffffffffffff1673ffffffffffffffffffffffffffffffffffffffff168152602001908152602001600020549050919050565b6000604051905090565b600080fd5b600080fd5b6000819050919050565b61085b81610848565b811461086657600080fd5b50565b60008135905061087881610852565b92915050565b6000602082840312156108945761089361083e565b5b60006108a284828501610869565b91505092915050565b600081519050919050565b600082825260208201905092915050565b6000819050602082019050919050565b600081519050919050565b600082825260208201905092915050565b60005b838110156109115780820151818401526020810190506108f6565b60008484015250505050565b6000601f19601f8301169050919050565b6000610939826108d7565b61094381856108e2565b93506109538185602086016108f3565b61095c8161091d565b840191505092915050565b61097081610848565b82525050565b60006040830160008301518482036000860152610993828261092e565b91505060208301516109a86020860182610967565b508091505092915050565b60006109bf8383610976565b905092915050565b6000602082019050919050565b60006109df826108ab565b6109e981856108b6565b9350836020820285016109fb856108c7565b8060005b85811015610a375784840389528151610a1885826109b3565b9450610a23836109c7565b925060208a019950506001810190506109ff565b50829750879550505050505092915050565b60006020820190508181036000830152610a6381846109d4565b905092915050565b600082825260208201905092915050565b6000610a87826108d7565b610a918185610a6b565b9350610aa18185602086016108f3565b610aaa8161091d565b840191505092915050565b610abe81610848565b82525050565b60006040820190508181036000830152610ade8185610a7c565b9050610aed6020830184610ab5565b9392505050565b600080fd5b600080fd5b7f4e487b7100000000000000000000000000000000000000000000000000000000600052604160045260246000fd5b610b368261091d565b810181811067ffffffffffffffff82111715610b5557610b54610afe565b5b80604052505050565b6000610b68610834565b9050610b748282610b2d565b919050565b600067ffffffffffffffff821115610b9457610b93610afe565b5b610b9d8261091d565b9050602081019050919050565b82818337600083830152505050565b6000610bcc610bc784610b79565b610b5e565b905082815260208101848484011115610be857610be7610af9565b5b610bf3848285610baa565b509392505050565b600082601f830112610c1057610c0f610af4565b5b8135610c20848260208601610bb9565b91505092915050565b600060208284031215610c3f57610c3e61083e565b5b600082013567ffffffffffffffff811115610c5d57610c5c610843565b5b610c6984828501610bfb565b91505092915050565b600073ffffffffffffffffffffffffffffffffffffffff82169050919050565b6000610c9d82610c72565b9050919050565b610cad81610c92565b8114610cb857600080fd5b50565b600081359050610cca81610ca4565b92915050565b600060208284031215610ce657610ce561083e565b5b6000610cf484828501610cbb565b91505092915050565b6000602082019050610d126000830184610ab5565b92915050565b610d2181610c92565b82525050565b6000602082019050610d3c6000830184610d18565b92915050565b7f416e64612074656c6168206d656e6361706169206261746173206d616b73696d60008201527f756d203520766f74650000000000000000000000000000000000000000000000602082015250565b6000610d9e602983610a6b565b9150610da982610d42565b604082019050919050565b60006020820190508181036000830152610dcd81610d91565b9050919050565b7f4b616e646964617420746964616b20646974656d756b616e0000000000000000600082015250565b6000610e0a601883610a6b565b9150610e1582610dd4565b602082019050919050565b60006020820190508181036000830152610e3981610dfd565b9050919050565b7f4e487b7100000000000000000000000000000000000000000000000000000000600052603260045260246000fd5b7f4e487b7100000000000000000000000000000000000000000000000000000000600052601160045260246000fd5b6000610ea982610848565b9150610eb483610848565b9250828201905080821115610ecc57610ecb610e6f565b5b92915050565b7f4e487b7100000000000000000000000000000000000000000000000000000000600052602260045260246000fd5b60006002820490506001821680610f1957607f821691505b602082108103610f2c57610f2b610ed2565b5b50919050565b7f48616e7961206f776e65722079616e672062697361206d656c616b756b616e2060008201527f696e690000000000000000000000000000000000000000000000000000000000602082015250565b6000610f8e602383610a6b565b9150610f9982610f32565b604082019050919050565b60006020820190508181036000830152610fbd81610f81565b9050919050565b60008190508160005260206000209050919050565b60006020601f8301049050919050565b600082821b905092915050565b6000600883026110267fffffffffffffffffffffffffffffffffffffffffffffffffffffffffffffffff82610fe9565b6110308683610fe9565b95508019841693508086168417925050509392505050565b6000819050919050565b600061106d61106861106384610848565b611048565b610848565b9050919050565b6000819050919050565b61108783611052565b61109b61109382611074565b848454610ff6565b825550505050565b600090565b6110b06110a3565b6110bb81848461107e565b505050565b5b818110156110df576110d46000826110a8565b6001810190506110c1565b5050565b601f821115611124576110f581610fc4565b6110fe84610fd9565b8101602085101561110d578190505b61112161111985610fd9565b8301826110c0565b50505b505050565b600082821c905092915050565b600061114760001984600802611129565b1980831691505092915050565b60006111608383611136565b9150826002028217905092915050565b611179826108d7565b67ffffffffffffffff81111561119257611191610afe565b5b61119c8254610f01565b6111a78282856110e3565b600060209050601f8311600181146111da57600084156111c8578287015190505b6111d28582611154565b86555061123a565b601f1984166111e886610fc4565b60005b82811015611210578489015182556001820191506020850194506020810190506111eb565b8683101561122d5784890151611229601f891682611136565b8355505b6001600288020188555050505b505050505050565b7f42656c756d20616461206b616e64696461740000000000000000000000000000600082015250565b6000611278601283610a6b565b915061128382611242565b602082019050919050565b600060208201905081810360008301526112a78161126b565b905091905056fea264697066735822122014cf77b590c1c5c263c862bb9456caaaa446d51a9cd4e31e28d9198aa758061d64736f6c63430008180033",
  "linkReferences": {},
  "deployedLinkReferences": {}
}